:100000000C9438000C94B4040C9420050C948C05CA
:100010000C94F8050C9464060C9455000C943B0D5C
:100020000C9455000C94E90C0C94D0060C943C07ED
:100030000C94A8070C9414080C9480080C94EC08F9
:100040000C9458090C94C4090C94300A0C949C0A22
:100050000C94080B0C94740B0C94E00BE302B102AB
:10006000B602BB02C002C502CA02CF02D402D90244
:1000700011241FBECFEFD4E0DEBFCDBF11E0A0E062
:10008000B1E0EEE6F1E202C005900D92AA30B107B0
:10009000D9F724E0AAE0B1E001C01D92AD35B20766
:1000A000E1F70E94BE030C94B5100C940000E0EC44
:1000B000F0E0808185FFFDCF6093C6009091000144
:1000C00085E08927809300010895CF92DF92EF9217
:1000D000FF920F931F93CF93DF93EC01962F61FB59
:1000E000112710F963FB002700F962FB222720F992
:1000F00030E06F817885620F731F412F50E0E92F48
:10010000E170F0E029853A852E0F3F1F241B350B47
:100110003A872987802F90E0681B790B78876F8357
:100120002D853E85240F351F3E872D872B853C85E9
:10013000280F391F3C872B87840F951F2F853889FF
:10014000820F931F988B8F8780E090E040E050E013
:100150000E94840369857A8580E090E042E050E067
:100160000E9484036D857E856115710511F46B8590
:100170007C8580E090E044E050E00E9484031123FD
:1001800099F0C12CD12C0F2EFCE4EF2EF1E0FF2EC4
:10019000F02D8E0120E030E0A9016AE572E682E0F0
:1001A00090E00E94F00D14C0002391F0C12CD12CDE
:1001B0000F2EF2E0EF2EF1E0FF2EF02D8E0120E069
:1001C00030E0A9016AE572E682E090E00E94F00D5D
:1001D000C12CD12C0F2EF7E9EF2EF1E0FF2EF02DE0
:1001E0008E0120E030E0A90160E070E0CB010E94C8
:1001F000F00DDF91CF911F910F91FF90EF90DF9065
:10020000CF900895CF92DF92EF92FF920F931F93BA
:10021000CF93DF93EC016F81788580E090E040E040
:1002200050E00E94840369857A8580E090E042E096
:1002300050E00E9484038B859C8501979C878B8767
:100240006D857E856115710509F4BC0180E090E043
:1002500044E050E00E9484038B859C85892B11F437
:10026000188A1F86C12CD12C0F2EF7E9EF2EF1E052
:10027000FF2EF02D8E0120E030E0A90160E070E05B
:10028000CB010E94F00DDF91CF911F910F91FF9054
:10029000EF90DF90CF900895CF92DF92EF92FF9290
:1002A0000F931F93CF93DF93EC018D859E8501976C
:1002B0009E878D876F81788580E090E040E050E0F8
:1002C0000E94840369857A8580E090E042E050E0F6
:1002D0000E9484036D857E856115710511F46B851F
:1002E0007C8580E090E044E050E00E9484038D85AE
:1002F0009E85892B11F4188A1F86C12CD12C0F2EB4
:10030000F7E9EF2EF1E0FF2EF02D8E0120E030E036
:10031000A90160E070E0CB010E94F00DDF91CF9168
:100320001F910F91FF90EF90DF90CF900895CF92A3
:10033000DF92EF92FF920F931F93FC0183859485C8
:10034000892B29F585859685892B09F581859285E7
:10035000892B09F46FC087819085892B41F481E056
:10036000848315826DC0148281E085836FC085818E
:1003700081112EC08481811163C08681882321F080
:1003800081E08583148262C081E0848359C08785BF
:1003900090890597E8F08481813079F48781908590
:1003A000892B59F0148281E0868390E08581282F83
:1003B000217080FF23C080E013C08581813041F42B
:1003C00081859285892B09F441C01582168238C037
:1003D000948191708581282F217080FF05C080E075
:1003E000213029F020E004C088E020E001C024E0B2
:1003F000322F382B992329F080E004C038E082E0C6
:1004000001C082E021E0913009F020E0C22EC32A31
:10041000C82AD12C0F2EF7E5EF2EF0E0FF2EF02D9D
:100420008F0120E030E0A90160E070E0CB010E9484
:10043000F00D12C087819085892B09F498CF93CF56
:10044000948191702581217088E0CACF9481917048
:100450002581217080E0C4CF1F910F91FF90EF9014
:10046000DF90CF900895CF92DF92EF92FF920F939B
:100470001F938C019091C6009F70C92ED12C0F2E16
:10048000F5E6EF2EF0E0FF2EF02D20E030E0A901A0
:1004900060E070E0CB010E94F00D1F910F91FF9082
:1004A000EF90DF90CF900895F8941092C50083E309
:1004B0008093C400E2ECF0E08081817F8083E1ECF6
:1004C000F0E080818B7F80838081886D8083789449
:1004D00008958FE08093E70087EB8093E500E6EED8
:1004E000F0E0108287E0808380EC8093E400089540
:1004F000CF92DF92EF92FF920F931F93CF93DF93F0
:100500006430710534F4623071053CF47723BCF437
:10051000F2C06630710554F0EEC0CCEFD0E027EFAA
:1005200030E042EF50E00DEE10E011C0CDEFD0E032
:1005300028EF30E043EF50E00EEE10E008C0CBEFC4
:10054000D0E026EF30E041EF50E00CEE10E090E01C
:10055000FC01F097EA30F10588F5E25DFF4F0C945D
:100560004C1080E191E0A0E0B0E031C081E19EE17B
:10057000A0E0B0E02CC081E19BE1A0E0B0E027C0AA
:1005800080E59BE0A0E0B0E022C081E49BE1A0E038
:10059000B0E01DC081E49FE1A0E0B0E018C081E1BF
:1005A00091E0A0E0B0E013C081E59FE1A0E0B0E001
:1005B0000EC081E59BE0A0E0B0E009C080E290E8D9
:1005C000A0E0B0E004C081E595E1A0E0B0E0FB016F
:1005D000E170F078FF2324F43197EE6FFF6F3196CE
:1005E000319709F03FC06330710529F4F80160814B
:1005F0006F70608304C0F80160816F726083FA01DC
:1006000060816F706083F90160816F7060836881C1
:100610006F706883F8016081782F7295707F672B07
:100620006083FA016081782F707F672B6083F90106
:100630001081AC01BD0144275F706627772768945D
:1006400013F876956795579547951694D1F7412BF2
:10065000408328818827907FAA27BB27822F892B58
:10066000888349C06230710529F4F8016081607F98
:10067000608304C0F8016081627F6083FA01608159
:10068000607F6083F9016081607F60836881607F43
:100690006883F8016081782F7F70672B6083FA018F
:1006A00060816C017D01F0EFCF22DD24EE24FF2478
:1006B000689413F8F694E794D794C7941694D1F7F6
:1006C000C62AFA01C082F90140816C017D01CC2467
:1006D000FFE0DF22EE24FF244D29F9014083288129
:1006E000072E7CE0B695A795979587957A95D1F7D3
:1006F000702D822B8883DF91CF911F910F91FF90F6
:10070000EF90DF90CF9008958F929F92AF92BF921B
:10071000CF92DF92EF92FF92CF93DF934B015C0178
:10072000EA0124E630E040E050E00E942D100F2E58
:10073000FAE0CF2ED12CE12CF12CF02DA70196015F
:100740000E942D10BE0180E3820F0E947802219644
:10075000C501B401A70196010E942D10862FBE018C
:10076000805D0E947802DF91CF91FF90EF90DF9043
:10077000CF90BF90AF909F908F9008950F931F934D
:10078000CF93DF93CDB7DEB761970FB6F894DEBF96
:100790000FBECDBF0E9469028E010F5F1F4F81E126
:1007A000F80111928A95E9F781E08E8348E063E3CE
:1007B00072E0C8010E94FC0F40E050E064E572E086
:1007C000C8010E94161061960FB6F894DEBF0FBEE6
:1007D000CDBFDF91CF911F910F910895CF93DF93FC
:1007E00000D000D0CDB7DEB78DEF91E02DED32E037
:1007F000FC01709791838083409682179307C1F71D
:100800001092CE021092CD02E8E3F1E085E591E08E
:100810009183808382E791E0968F858FAFE8B1E086
:10082000B3AFA2AF1D921C92FA83E983E9E3F3E030
:10083000FC83EB8389819A8106960E9474108B81D8
:100840009C81E981FA81978B868B918F808F8EE8CE
:100850009FE0948F838F158214827D96FA83E983BB
:10086000EB81FC81E05AFF4FFC83EB8389819A8105
:100870008C5A9140F9F6E0EDF1E011821082158278
:10088000148213821282E1E6F0E080E88083108215
:10089000109285001092840084E08093810081E0B2
:1008A00080936F000F900F900F900F90DF91CF917A
:1008B0000895CF93DF9300D0CDB7DEB79A838983B5
:1008C000809101019091020106960E947410892B7B
:1008D00059F489819A81909302018093010161E02A
:1008E00070E006960E9494100F900F90DF91CF91C8
:1008F00008950F931F93CF93DF93E0911201F0912E
:100900001301309761F180910501909106010097E4
:1009100031F1C0910301D0910401AA81BB811097EC
:1009200079F0468157816085718516960D911D91EC
:100930002D913C911997401B510B620B730B7AF46C
:10094000FC01208131813093060120930501D18380
:10095000C08390930401809303010E945904DF91A6
:10096000CF911F910F9108951F920F920FB60F9282
:1009700011242F933F934F935F936F937F938F93A4
:100980009F93AF93BF93EF93FF9320910A01309110
:100990000B014091840050918500C901032E000C89
:1009A000AA0BBB0BDC019927882760E070E0842B41
:1009B000952BA62BB72B80930C0190930D01A09340
:1009C0000E01B0930F01B09B1BC040918400509169
:1009D0008500C9010196092E000CAA0BBB0BDC0196
:1009E0009927882760E070E0842B952BA62BB72BE6
:1009F00080930C0190930D01A0930E01B0930F0111
:100A0000E091AC01F091AD01309739F060E070E019
:100A1000809114019091150109950E947904FF912C
:100A2000EF91BF91AF919F918F917F916F915F9166
:100A30004F913F912F910F900FBE0F901F901895DF
:100A40001F920F920FB60F9211242F933F934F9343
:100A50005F936F937F938F939F93AF93BF93EF9326
:100A6000FF9320910A0130910B0140918400509135
:100A70008500C901032E000CAA0BBB0BDC019927D2
:100A8000882760E070E0842B952BA62BB72B8093F2
:100A90000C0190930D01A0930E01B0930F01B09B38
:100AA0001BC04091840050918500C9010196092E18
:100AB000000CAA0BBB0BDC019927882760E070E0D3
:100AC000842B952BA62BB72B80930C0190930D01B3
:100AD000A0930E01B0930F01E091AE01F091AF0130
:100AE000309739F061E070E0809116019091170124
:100AF00009950E947904FF91EF91BF91AF919F9169
:100B00008F917F916F915F914F913F912F910F90B6
:100B10000FBE0F901F9018951F920F920FB60F9255
:100B200011242F933F934F935F936F937F938F93F2
:100B30009F93AF93BF93EF93FF9320910A0130915E
:100B40000B014091840050918500C901032E000CD7
:100B5000AA0BBB0BDC019927882760E070E0842B8F
:100B6000952BA62BB72B80930C0190930D01A0938E
:100B70000E01B0930F01B09B1BC0409184005091B7
:100B80008500C9010196092E000CAA0BBB0BDC01E4
:100B90009927882760E070E0842B952BA62BB72B34
:100BA00080930C0190930D01A0930E01B0930F015F
:100BB000E091B001F091B101309739F062E070E05E
:100BC000809118019091190109950E947904FF9173
:100BD000EF91BF91AF919F918F917F916F915F91B5
:100BE0004F913F912F910F900FBE0F901F9018952E
:100BF0001F920F920FB60F9211242F933F934F9392
:100C00005F936F937F938F939F93AF93BF93EF9374
:100C1000FF9320910A0130910B0140918400509183
:100C20008500C901032E000CAA0BBB0BDC01992720
:100C3000882760E070E0842B952BA62BB72B809340
:100C40000C0190930D01A0930E01B0930F01B09B86
:100C50001BC04091840050918500C9010196092E66
:100C6000000CAA0BBB0BDC019927882760E070E021
:100C7000842B952BA62BB72B80930C0190930D0101
:100C8000A0930E01B0930F01E091B201F091B30176
:100C9000309739F063E070E080911A0190911B0168
:100CA00009950E947904FF91EF91BF91AF919F91B7
:100CB0008F917F916F915F914F913F912F910F9005
:100CC0000FBE0F901F9018951F920F920FB60F92A4
:100CD00011242F933F934F935F936F937F938F9341
:100CE0009F93AF93BF93EF93FF9320910A013091AD
:100CF0000B014091840050918500C901032E000C26
:100D0000AA0BBB0BDC019927882760E070E0842BDD
:100D1000952BA62BB72B80930C0190930D01A093DC
:100D20000E01B0930F01B09B1BC040918400509105
:100D30008500C9010196092E000CAA0BBB0BDC0132
:100D40009927882760E070E0842B952BA62BB72B82
:100D500080930C0190930D01A0930E01B0930F01AD
:100D6000E091B401F091B501309739F064E070E0A2
:100D700080911C0190911D0109950E947904FF91B9
:100D8000EF91BF91AF919F918F917F916F915F9103
:100D90004F913F912F910F900FBE0F901F9018957C
:100DA0001F920F920FB60F9211242F933F934F93E0
:100DB0005F936F937F938F939F93AF93BF93EF93C3
:100DC000FF9320910A0130910B01409184005091D2
:100DD0008500C901032E000CAA0BBB0BDC0199276F
:100DE000882760E070E0842B952BA62BB72B80938F
:100DF0000C0190930D01A0930E01B0930F01B09BD5
:100E00001BC04091840050918500C9010196092EB4
:100E1000000CAA0BBB0BDC019927882760E070E06F
:100E2000842B952BA62BB72B80930C0190930D014F
:100E3000A0930E01B0930F01E091B601F091B701BC
:100E4000309739F065E070E080911E0190911F01AC
:100E500009950E947904FF91EF91BF91AF919F9105
:100E60008F917F916F915F914F913F912F910F9053
:100E70000FBE0F901F9018951F920F920FB60F92F2
:100E800011242F933F934F935F936F937F938F938F
:100E90009F93AF93BF93EF93FF9320910A013091FB
:100EA0000B014091840050918500C901032E000C74
:100EB000AA0BBB0BDC019927882760E070E0842B2C
:100EC000952BA62BB72B80930C0190930D01A0932B
:100ED0000E01B0930F01B09B1BC040918400509154
:100EE0008500C9010196092E000CAA0BBB0BDC0181
:100EF0009927882760E070E0842B952BA62BB72BD1
:100F000080930C0190930D01A0930E01B0930F01FB
:100F1000E091B801F091B901309739F066E070E0E6
:100F2000809120019091210109950E947904FF91FF
:100F3000EF91BF91AF919F918F917F916F915F9151
:100F40004F913F912F910F900FBE0F901F901895CA
:100F50001F920F920FB60F9211242F933F934F932E
:100F60005F936F937F938F939F93AF93BF93EF9311
:100F7000FF9320910A0130910B0140918400509120
:100F80008500C901032E000CAA0BBB0BDC019927BD
:100F9000882760E070E0842B952BA62BB72B8093DD
:100FA0000C0190930D01A0930E01B0930F01B09B23
:100FB0001BC04091840050918500C9010196092E03
:100FC000000CAA0BBB0BDC019927882760E070E0BE
:100FD000842B952BA62BB72B80930C0190930D019E
:100FE000A0930E01B0930F01E091BA01F091BB0103
:100FF000309739F067E070E08091220190912301F1
:1010000009950E947904FF91EF91BF91AF919F9153
:101010008F917F916F915F914F913F912F910F90A1
:101020000FBE0F901F9018951F920F920FB60F9240
:1010300011242F933F934F935F936F937F938F93DD
:101040009F93AF93BF93EF93FF9320910A01309149
:101050000B014091840050918500C901032E000CC2
:10106000AA0BBB0BDC019927882760E070E0842B7A
:10107000952BA62BB72B80930C0190930D01A09379
:101080000E01B0930F01B09B1BC0409184005091A2
:101090008500C9010196092E000CAA0BBB0BDC01CF
:1010A0009927882760E070E0842B952BA62BB72B1F
:1010B00080930C0190930D01A0930E01B0930F014A
:1010C000E091BC01F091BD01309739F068E070E02B
:1010D000809124019091250109950E947904FF9146
:1010E000EF91BF91AF919F918F917F916F915F91A0
:1010F0004F913F912F910F900FBE0F901F90189519
:101100001F920F920FB60F9211242F933F934F937C
:101110005F936F937F938F939F93AF93BF93EF935F
:10112000FF9320910A0130910B014091840050916E
:101130008500C901032E000CAA0BBB0BDC0199270B
:10114000882760E070E0842B952BA62BB72B80932B
:101150000C0190930D01A0930E01B0930F01B09B71
:101160001BC04091840050918500C9010196092E51
:10117000000CAA0BBB0BDC019927882760E070E00C
:10118000842B952BA62BB72B80930C0190930D01EC
:10119000A0930E01B0930F01E091BE01F091BF0149
:1011A000309739F069E070E0809126019091270135
:1011B00009950E947904FF91EF91BF91AF919F91A2
:1011C0008F917F916F915F914F913F912F910F90F0
:1011D0000FBE0F901F9018951F920F920FB60F928F
:1011E00011242F933F934F935F936F937F938F932C
:1011F0009F93AF93BF93EF93FF9320910A01309198
:101200000B014091840050918500C901032E000C10
:10121000AA0BBB0BDC019927882760E070E0842BC8
:10122000952BA62BB72B80930C0190930D01A093C7
:101230000E01B0930F01B09B1BC0409184005091F0
:101240008500C9010196092E000CAA0BBB0BDC011D
:101250009927882760E070E0842B952BA62BB72B6D
:1012600080930C0190930D01A0930E01B0930F0198
:10127000E091C001F091C101309739F06AE070E06F
:10128000809128019091290109950E947904FF918C
:10129000EF91BF91AF919F918F917F916F915F91EE
:1012A0004F913F912F910F900FBE0F901F90189567
:1012B0001F920F920FB60F9211242F933F934F93CB
:1012C0005F936F937F938F939F93AF93BF93EF93AE
:1012D000FF9320910A0130910B01409184005091BD
:1012E0008500C901032E000CAA0BBB0BDC0199275A
:1012F000882760E070E0842B952BA62BB72B80937A
:101300000C0190930D01A0930E01B0930F01B09BBF
:101310001BC04091840050918500C9010196092E9F
:10132000000CAA0BBB0BDC019927882760E070E05A
:10133000842B952BA62BB72B80930C0190930D013A
:10134000A0930E01B0930F01E091C201F091C3018F
:10135000309739F06BE070E080912A0190912B0179
:1013600009950E947904FF91EF91BF91AF919F91F0
:101370008F917F916F915F914F913F912F910F903E
:101380000FBE0F901F9018951F920F920FB60F92DD
:1013900011242F933F934F935F936F937F938F937A
:1013A0009F93AF93BF93EF93FF9320910A013091E6
:1013B0000B014091840050918500C901032E000C5F
:1013C000AA0BBB0BDC019927882760E070E0842B17
:1013D000952BA62BB72B80930C0190930D01A09316
:1013E0000E01B0930F01B09B1BC04091840050913F
:1013F0008500C9010196092E000CAA0BBB0BDC016C
:101400009927882760E070E0842B952BA62BB72BBB
:1014100080930C0190930D01A0930E01B0930F01E6
:10142000E091C401F091C501309739F06CE070E0B3
:1014300080912C0190912D0109950E947904FF91D2
:10144000EF91BF91AF919F918F917F916F915F913C
:101450004F913F912F910F900FBE0F901F901895B5
:101460001F920F920FB60F9211242F933F934F9319
:101470005F936F937F938F939F93AF93BF93EF93FC
:10148000FF9320910A0130910B014091840050910B
:101490008500C901032E000CAA0BBB0BDC019927A8
:1014A000882760E070E0842B952BA62BB72B8093C8
:1014B0000C0190930D01A0930E01B0930F01B09B0E
:1014C0001BC04091840050918500C9010196092EEE
:1014D000000CAA0BBB0BDC019927882760E070E0A9
:1014E000842B952BA62BB72B80930C0190930D0189
:1014F000A0930E01B0930F01E091C601F091C701D6
:10150000309739F06DE070E080912E0190912F01BD
:1015100009950E947904FF91EF91BF91AF919F913E
:101520008F917F916F915F914F913F912F910F908C
:101530000FBE0F901F9018951F920F920FB60F922B
:1015400011242F933F934F935F936F937F938F93C8
:101550009F93AF93BF93EF93FF9320910A01309134
:101560000B014091840050918500C901032E000CAD
:10157000AA0BBB0BDC019927882760E070E0842B65
:10158000952BA62BB72B80930C0190930D01A09364
:101590000E01B0930F01B09B1BC04091840050918D
:1015A0008500C9010196092E000CAA0BBB0BDC01BA
:1015B0009927882760E070E0842B952BA62BB72B0A
:1015C00080930C0190930D01A0930E01B0930F0135
:1015D000E091C801F091C901309739F06EE070E0F8
:1015E000809130019091310109950E947904FF9119
:1015F000EF91BF91AF919F918F917F916F915F918B
:101600004F913F912F910F900FBE0F901F90189503
:101610001F920F920FB60F9211242F933F934F9367
:101620005F936F937F938F939F93AF93BF93EF934A
:10163000FF9320910A0130910B0140918400509159
:101640008500C901032E000CAA0BBB0BDC019927F6
:10165000882760E070E0842B952BA62BB72B809316
:101660000C0190930D01A0930E01B0930F01B09B5C
:101670001BC04091840050918500C9010196092E3C
:10168000000CAA0BBB0BDC019927882760E070E0F7
:10169000842B952BA62BB72B80930C0190930D01D7
:1016A000A0930E01B0930F01E091CA01F091CB011C
:1016B000309739F06FE070E0809132019091330102
:1016C00009950E947904FF91EF91BF91AF919F918D
:1016D0008F917F916F915F914F913F912F910F90DB
:1016E0000FBE0F901F9018951F920F920FB60F927A
:1016F00011242F933F934F935F936F937F938F9317
:101700009F93AF93BF93EF93FF9320910A01309182
:101710000B014091840050918500C901032E000CFB
:10172000AA0BBB0BDC019927882760E070E0842BB3
:10173000952BA62BB72B80930C0190930D01A093B2
:101740000E01B0930F01B09B1BC0409184005091DB
:101750008500C9010196092E000CAA0BBB0BDC0108
:101760009927882760E070E0842B952BA62BB72B58
:1017700080930C0190930D01A0930E01B0930F0183
:10178000E091CC01F091CD01309739F060E170E04B
:10179000809134019091350109950E947904FF915F
:1017A000EF91BF91AF919F918F917F916F915F91D9
:1017B0004F913F912F910F900FBE0F901F90189552
:1017C0001F920F920FB60F9211242F933F934F93B6
:1017D0005F936F937F938F939F93AF93BF93EF9399
:1017E000FF9320910A0130910B01409184005091A8
:1017F0008500C901032E000CAA0BBB0BDC01992745
:10180000882760E070E0842B952BA62BB72B809364
:101810000C0190930D01A0930E01B0930F01B09BAA
:101820001BC04091840050918500C9010196092E8A
:10183000000CAA0BBB0BDC019927882760E070E045
:10184000842B952BA62BB72B80930C0190930D0125
:10185000A0930E01B0930F01E091CE01F091CF0162
:10186000309739F061E170E0809136019091370155
:1018700009950E947904FF91EF91BF91AF919F91DB
:101880008F917F916F915F914F913F912F910F9029
:101890000FBE0F901F901895EF92FF920F931F931A
:1018A000CF93DF937B01EB01A881B981109761F1A0
:1018B000FC01068117812085318516964D915D9139
:1018C0006D917C911997041715072607370714F4B3
:1018D0001BC0DF01ED91FC911197309749F04681D3
:1018E00057816085718504171507260737078CF720
:1018F000EC01F983E883109721F4F7019183808349
:1019000007C08D939C9304C0EC01B983A883F5CFE5
:10191000DF91CF911F910F91FF90EF900895EF927B
:10192000FF920F931F93CF93DF937B01EB01A8816D
:10193000B981109761F1FC01028113812481358105
:1019400012964D915D916D917C9115970417150735
:101950002607370714F41BC0DF01ED91FC911197A6
:10196000309749F0428153816481758104171507CE
:10197000260737078CF7EC01F983E883109721F4E9
:10198000F7019183808307C08D939C9304C0EC0181
:10199000B983A883F5CFDF91CF911F910F91FF906D
:1019A000EF900895DC01ED91FC911197309759F477
:1019B0008FEF8093EC008093ED008093EE0081E048
:1019C00083BF8895FDCF208131812D933C93CF013A
:1019D00008951F920F920FB60F9211242F933F93E9
:1019E0004F935F936F937F938F939F93EF93FF93A7
:1019F00080910A0190910B01019690930B018093C5
:101A00000A01E0911001F0911101309701F142813A
:101A100053816481758186179707C9F4CA012091A3
:101A2000840030918500421B530B4130510529F44D
:101A30008091840090918500019690938900809315
:101A40008800EFE6F0E080818260808305C0EFE6E9
:101A5000F0E080818D7F8083FF91EF919F918F9146
:101A60007F916F915F914F913F912F910F900FBE9A
:101A70000F901F9018951F920F920FB60F9211247E
:101A8000CF92DF92EF92FF922F933F934F935F930A
:101A90006F937F938F939F93AF93BF93EF93FF9336
:101AA000C0900A01D0900B012091840030918500F4
:101AB000B0990FC00D2C000CEE08FF08D601992735
:101AC00088276901E12CF12CC82AD92AEA2AFB2AA5
:101AD00015C020918400309185008FEFC81AD80A74
:101AE0000D2C000CEE08FF08D60199278827690104
:101AF000E12CF12CC82AD92AEA2AFB2AE09110010C
:101B0000F0911101309709F442C082819381A48140
:101B1000B5818C199D09AE09BF09181619061A0658
:101B20001B06ECF180E191E00E94D20C62E171E0D1
:101B30000E944C0CE0911001F0911101309739F1A5
:101B400082819381A481B5818C199D09AE09BF0959
:101B5000181619061A061B062CF721C09C01409185
:101B6000840050918500841B950B019731F42091DE
:101B70008400309185002F5F3F4F30938900209380
:101B80008800EFE6F0E080818260808305C0EFE6A8
:101B9000F0E080818D7F80830E9479040CC0828177
:101BA0009381A481B58120910A0130910B012A17FC
:101BB0003B0769F7D3CFFF91EF91BF91AF919F9111
:101BC0008F917F916F915F914F913F912F91FF90F6
:101BD000EF90DF90CF900F900FBE0F901F90189551
:101BE0003F924F925F926F927F928F929F92AF92AD
:101BF000BF92CF92DF92EF92FF920F931F93CF93FA
:101C0000DF932B013C0149015A018FB78078382EB0
:101C1000F89487E091E00E94D20CEC011B870A87C0
:101C2000FD86EC86DF86CE86332061F0E0910101EF
:101C3000F09102010280F381E02D82819381A481E1
:101C4000B58108C080910C0190910D01A0910E0109
:101C5000B0910F01480E591E6A1E7B1E4A825B829C
:101C60006C827D82181419041A041B0444F00F2E90
:101C700088248A94982CA82CFFE7BF2EF02D840C82
:101C8000951CA61CB71C8E829F82A886B98680915F
:101C90000A0190910B014091840050918500B09908
:101CA0000EC0092E000CAA0BBB0BDC01992788275C
:101CB00060E070E0842B952BA62BB72B13C02091EE
:101CC0008400309185000196092E000CAA0BBB0BF5
:101CD000DC0199278827A90160E070E0842B952B0F
:101CE000A62BB72B481A590A6A0A7B0A1414150442
:101CF00016041704ACF560E171E0CE010E948F0C70
:101D0000E0911001F0911101309721F182819381CE
:101D1000A481B58120910A0130910B012A173B075C
:101D2000C9F49C014091840050918500841B950B5F
:101D3000019731F420918400309185002F5F3F4F4F
:101D40003093890020938800EFE6F0E08081826084
:101D5000808341C0EFE6F0E080818D7F80833BC0CF
:101D600062E171E0CE010E944C0C3320B9F1809108
:101D7000050190910601009781F1E0910301F09136
:101D80000401209112013091130102811381D901C4
:101D900016964D915D916D917C911997D80116968B
:101DA0000D911D912D913C911997401B510B620B88
:101DB000730B9AF4DC012D913C911197309306013D
:101DC00020930501ED93FC9390930401809303010C
:101DD0000E94590402C0332009F07894CE01DF91AB
:101DE000CF911F910F91FF90EF90DF90CF90BF9018
:101DF000AF909F908F907F906F905F904F903F90AB
:101E00000895CF92DF92EF92FF920F931F93CF939B
:101E1000DF93EC017B016A011FB71078F894A88169
:101E2000B981109761F11496ED91FC911597309757
:101E300041F0A081B1811496ED91FC9115973097F6
:101E4000C1F720910101309102012A173B0721F0CF
:101E5000112309F43DC007C0112309F43CC0789454
:101E60008FEF9FEF52C08A819B810097D1F1FC01D7
:101E70001582148236C0789480E090E046C080914C
:101E800001019091020199838883112329F08A81AD
:101E90009B81019709F07894B601CE01F70109956D
:101EA000F82E092F8FB7F894198218828A819B81A6
:101EB0008230910538F01B821A82FC01158214824F
:101EC0000E945904112351F078948F2D902F1DC03A
:101ED0008FEF9FEF1AC08FEF9FEF17C08F2D902FBE
:101EE00014C03B832A83F901D583C483CD010E94AA
:101EF0005904E0910101F091020182819381892BC3
:101F000009F4B9CFF983E883C2CFDF91CF911F9154
:101F10000F91FF90EF90DF90CF9008950091010115
:101F20001091020182E191E00E94D20CEC01D801F3
:101F300013969C938E93129778944E855F856C854B
:101F40007D858A859B850E94010F8FB7F8948091CB
:101F500007019091080199838883D0930801C09369
:101F60000701E0910301F091040100811181E80172
:101F70002A813B81A0911201B09113011097C1F009
:101F80002115310559F216968D919D910D90BC91B8
:101F9000A02DE9014E815F8168857985841B950BB1
:101FA000A60BB70B181619061A061B060CF0B6CFAF
:101FB00010930401009303018091050190910601A3
:101FC00091838083F0930601E0930501A0910301C2
:101FD000B09104011496ED91FC911597309741F062
:101FE000A081B1811496ED91FC9115973097C1F7BE
:101FF000CD010E94590492CF4231B8F42FB7F89422
:1020000050E0440F551FFA01EC5EFE4F9183808330
:10201000FA01E455FE4F7183608341E050E0FC011A
:102020005383428322230CF4789408958C01EB01AE
:102030007A018FB7F8940E94EE037894209721F0EC
:10204000B701C801FE0109958FB7F8940E94790481
:10205000789481E083BF8895FDCF052E97FB1EF411
:1020600000940E94441057FD07D00E94521007FCB4
:1020700003D04EF40C944410509540953095219522
:102080003F4F4F4F5F4F08959095809570956195A4
:102090007F4F8F4F9F4F0895EE0FFF1F0590F491D4
:1020A000E02D0994A1E21A2EAA1BBB1BFD010DC055
:1020B000AA1FBB1FEE1FFF1FA217B307E407F507F8
:1020C00020F0A21BB30BE40BF50B661F771F881FD4
:1020D000991F1A9469F760957095809590959B016A
:1020E000AC01BD01CF010895DC012D923D924D92CE
:1020F0005D926D927D928D929D92AD92BD92CD92A8
:10210000DD92ED92FD920D931D93CD93DD93FF91A2
:10211000EF918DB78D938EB78D938FB78D93ED9390
:10212000FD93882799270994DC01CB018130910523
:10213000811D2D903D904D905D906D907D908D9086
:102140009D90AD90BD90CD90DD90ED90FD900D9166
:102150001D91CD91DD91ED91FD910D90F894FEBF13
:0E2160000FBEEDBFED91FD910994F894FFCFF5
:0A216E0004D001D0013801ED01009A
:00000001FF
